:100000000C9434000C9451000C9451000C94510049
:100010000C9451000C9451000C9451000C94A400C9
:100020000C9451000C9451000C9451000C9451000C
:100030000C9451000C9451000C9451000C945100FC
:100040000C9451000C9451000C9451000C945100EC
:100050000C9451000C9451000C9451000C945100DC
:100060000C9451000C94510011241FBECFEFD4E02A
:10007000DEBFCDBF11E0A6E0B1E001C01D92AE3001
:10008000B107E1F711E0A0E0B1E0E4E6FAE002C078
:1000900005900D92A630B107D9F70E9444020C9446
:1000A00030050C9400000E94DC0080E00E945E009D
:1000B0000E94D4000E9492000C94610197B121E04B
:1000C00030E0082E01C0220F0A94EAF72095292378
:1000D00027B997E890937A00806480937C008091A0
:1000E0007A00806480937A0080917A0086FDFCCF4C
:1000F000089590917C00907F90937C0090917C007B
:100100008F70892B80937C0080917A00806480932B
:100110007A0080917A0086FDFCCF809178009091E2
:10012000790008951092B20082E08093B00085E0DB
:100130008093B1008DE78093B300E0E7F0E0808129
:1001400082608083789408951F920F920FB60F9269
:1001500011248F939F93AF93BF9380910601909149
:100160000701A0910801B09109010196A11DB11DDF
:100170008093060190930701A0930801B0930901B1
:10018000BF91AF919F918F910F900FBE0F901F90D5
:100190001895F8946091060170910701809108010B
:1001A0009091090178940895569A81E884BD83E07E
:1001B00085BD089587BD0895E1ECF0E080818861F8
:1001C000808387E690E09093C5008093C4000895F3
:1001D0009091C00095FFFCCF8093C60080E090E036
:1001E0000895CF93DF93EC018991882319F00E9441
:1001F000E800FACFDF91CF9108951F93CF93DF935B
:10020000EC01FE011491812F0E94E800112311F0EE
:100210002196F7CFDF91CF911F910895CF93DF9370
:10022000CDB7DEB72A970FB6F894DEBF0FBECDBFAD
:100230004AE050E0BE016F5F7F4F0E94EB04CE01A9
:1002400001960E94F1002A960FB6F894DEBF0FBE09
:10025000CDBFDF91CF9108958091C00087FFFCCF83
:100260008091C6000895EF92FF920F931F93CF9352
:10027000DF938AE090E00E94C403EC010097B1F0A4
:100280007C018AE0E80EF11C8091C00087FF0CC061
:100290008E010E942C01F80181938F01882349F07F
:1002A000EE15FF05B1F7F0CF198603C080E090E0AE
:1002B00001C0CE01DF91CF911F910F91FF90EF9080
:1002C0000895219A229A80EA8093800082E18093A7
:1002D0008100109285001092840080E29EE4909349
:1002E0008700809386008CED95E090938900809341
:1002F000880090938B0080938A0008959B01285E6C
:100300003340293E334058F4811105C07093890071
:1003100060938800089570938B0060938A0008951D
:10032000CF92DF92EF92FF926B017C0120E030E0F0
:1003300040E85FEB0E94B80287FD47C020E030E054
:1003400040E85FE3C701B6010E945D031816ECF1B7
:1003500020E030E0A901C701B6010E94B80287FF82
:1003600005C020E030E045EA53E40DC020E030E075
:10037000A901C701B6010E945D031816BCF420E074
:1003800030E046E953E4C701B6010E94610320E072
:1003900030E84BEB54E40E9454020E94BC0280E01F
:1003A000FF90EF90DF90CF900C947E0120E030E042
:1003B000A901C701B6010E94B802811106C08CEDE7
:1003C00095E09093890080938800FF90EF90DF90F4
:1003D000CF900895CF92DF92EF92FF926B017C0154
:1003E00020E030E040E85FEB0E94B80287FD47C0A4
:1003F00020E030E040E85FE3C701B6010E945D0302
:100400001816ECF120E030E0A901C701B6010E9406
:10041000B80287FF05C020E030E04AEF53E40DC08A
:1004200020E030E0A901C701B6010E945D03181663
:10043000BCF420E030E042EE53E4C701B6010E9474
:10044000610320E030E84BEB54E40E9454020E9428
:10045000BC0281E0FF90EF90DF90CF900C947E0182
:1004600020E030E0A901C701B6010E94B802811165
:1004700006C08CED95E090938B0080938A00FF90EE
:10048000EF90DF90CF9008950E94530066EF78E2DE
:100490008CED9EE30E9490016AE979E989E19EE38F
:1004A0000E94EA01F3CF5058BB27AA270ED0CBC039
:1004B000BCD030F0C1D020F031F49F3F11F41EF4D5
:1004C000B1C00EF4E095E7FBA7C0E92FCDD080F3D3
:1004D000BA17620773078407950718F071F49EF541
:1004E000E5C00EF4E0950B2EBA2FA02D0B01B9013B
:1004F00090010C01CA01A0011124FF27591B99F09A
:10050000593F50F4503E68F11A16F040A22F232FA5
:10051000342F4427585FF3CF469537952795A795F5
:10052000F0405395C9F77EF41F16BA0B620B730B9C
:10053000840BBAF09150A1F0FF0FBB1F661F771F0D
:10054000881FC2F70EC0BA0F621F731F841F48F4C2
:10055000879577956795B795F7959E3F08F0B3CF48
:100560009395880F08F09927EE0F97958795089532
:100570002FD008F481E008957FD088F09F5790F045
:10058000B92F9927B751A0F0D1F0660F771F881FB8
:10059000991F1AF0BA95C9F712C0B13081F086D010
:1005A000B1E0089583C0672F782F8827B85F39F0AE
:1005B000B93FCCF3869577956795B395D9F73EF417
:1005C00090958095709561957F4F8F4F9F4F0895BF
:1005D000990F0008550FAA0BE0E8FEEF1616170654
:1005E000E807F907C0F012161306E407F50798F0BC
:1005F000621B730B840B950B39F40A2661F0232BD5
:10060000242B252B21F408950A2609F4A140A69550
:100610008FEF811D811D089597F99F6780E870E035
:1006200060E008959FEF80EC089500240A94161668
:10063000170618060906089500240A9412161306D0
:10064000140605060895092E0394000C11F488235E
:1006500052F0BB0F40F4BF2B11F460FF04C06F5F7A
:100660007F4F8F4F9F4F089557FD9058440F551F50
:1006700059F05F3F71F04795880F97FB991F61F024
:100680009F3F79F087950895121613061406551F9B
:10069000F2CF4695F1DF08C0161617061806991F07
:1006A000F1CF86957105610508940895E894BB27FC
:1006B00066277727CB0197F908958ADF08F48FEF33
:1006C00008950BD0C0CFB1DF28F0B6DF18F0952326
:1006D00009F0A2CFA7CF1124EACFC6DFA0F3959FE0
:1006E000D1F3950F50E0551F629FF001729FBB2719
:1006F000F00DB11D639FAA27F00DB11DAA1F649FC5
:100700006627B00DA11D661F829F2227B00DA11D77
:10071000621F739FB00DA11D621F839FA00D611DFD
:10072000221F749F3327A00D611D231F849F600D1E
:10073000211D822F762F6A2F11249F5750408AF057
:10074000E1F088234AF0EE0FFF1FBB1F661F771FE3
:10075000881F91505040A9F79E3F510570F05CCF23
:10076000A6CF5F3FECF3983EDCF3869577956795CF
:10077000B795F795E7959F5FC1F7FE2B880F911D01
:100780009695879597F90895CF93DF9382309105D9
:1007900010F482E090E0E0910C01F0910D0120E076
:1007A00030E0A0E0B0E0309739F140815181481746
:1007B0005907B8F04817590771F48281938110974F
:1007C00029F013969C938E9312972CC090930D0151
:1007D00080930C0127C02115310531F042175307D2
:1007E00018F0A901DB0101C0EF019A01BD01DF0191
:1007F0000280F381E02DD7CF21153105F9F0281BB8
:10080000390B2430310580F48A819B816115710593
:1008100021F0FB019383828304C090930D018093A8
:100820000C01FE01329644C0FE01E20FF31F8193DA
:10083000919322503109398328833AC020910A01CB
:1008400030910B01232B41F42091020130910301DF
:1008500030930B0120930A01209100013091010196
:100860002115310541F42DB73EB740910401509157
:100870000501241B350BE0910A01F0910B01E217F1
:10088000F307A0F42E1B3F0B2817390778F0AC01B3
:100890004E5F5F4F2417350748F04E0F5F1F509390
:1008A0000B0140930A018193919302C0E0E0F0E0D4
:1008B000CF01DF91CF910895CF93DF93009709F493
:1008C00087C0FC01329713821282C0910C01D09133
:1008D0000D01209781F420813181280F391F8091EB
:1008E0000A0190910B018217930779F5F0930B01A0
:1008F000E0930A016DC0DE0120E030E0AE17BF07D3
:1009000050F412964D915C9113979D01411551053C
:1009100009F1DA01F3CFB383A28340815181840FBF
:10092000951F8A179B0771F48D919C911197840FE5
:10093000951F02969183808312968D919C911397B7
:10094000938382832115310529F4F0930D01E093FF
:100950000C013EC0D9011396FC93EE9312974D9172
:100960005D91A40FB51FEA17FB0779F4808191818F
:10097000840F951F0296D90111969C938E938281C4
:10098000938113969C938E931297E0E0F0E08A8116
:100990009B81009719F0FE01EC01F9CFCE01029680
:1009A00028813981820F931F20910A0130910B0118
:1009B0002817390769F4309729F410920D01109225
:1009C0000C0102C013821282D0930B01C0930A0162
:1009D000DF91CF910895FB019F01E8944230C4F06C
:1009E0004532B4F44A3029F497FB1EF49095819572
:1009F0009F4F642F77270E941C05805D8A330CF07F
:100A0000895D8193CB010097A1F716F45DE25193C4
:100A10001082C9010C940C05DC01FC01672F719157
:100A20007723E1F7329704C07C916D9370836291D4
:100A3000AE17BF07C8F30895AA1BBB1B51E107C03F
:100A4000AA1FBB1FA617B70710F0A61BB70B881F5E
:100A5000991F5A95A9F780959095BC01CD010895ED
:040A6000F894FFCF38
:060A640000000E0120005D
:00000001FF
